:100000000C9466000C9478000C9478000C947800A2
:100010000C9478000C9478000C9478000C94780080
:100020000C9478000C9478000C9478000C94780070
:100030000C9478000C9478000C9478000C94780060
:100040000C94FD010C9478000C9478000C947800CA
:100050000C9478000C9478000C9478000C94780040
:100060000C9478000C947800000000002300260017
:10007000290000000000240027002A0000000000E2
:10008000250028002B0004040404040404040202D4
:100090000202020203030303030302020301020438
:1000A00008102040800102040810200102040810FA
:1000B0002040804000000009000302000004050801
:1000C00000000000000000000000000011241FBE1E
:1000D000CFEFD8E0DEBFCDBF21E0A0E0B1E001C0AE
:1000E0001D92A930B207E1F70E9447020C94110358
:1000F0000C940000843081F028F48230E9F08330E1
:10010000F9F00895883071F0893091F08530B9F4B4
:10011000809180008F7D03C0809180008F778093D5
:10012000800008958091B0008F778093B00008958B
:100130008091B0008F7DF9CF84B58F7784BD08950D
:1001400084B58F7DFBCF1F93CF93DF93282F30E0B3
:10015000F901EC54FF4F8491F901E356FF4FD4911C
:10016000F901EA57FF4FC491CC23A9F0162F811152
:100170000E947A00EC2FF0E0EE0FFF1FE458FF4FD3
:10018000A591B4918FB7F894EC91111108C0D09556
:10019000DE23DC938FBFDF91CF911F910895DE2B7B
:1001A000F8CFCF93DF9390E0FC01E356FF4F24910B
:1001B0008A579F4FFC0184918823D1F090E0880FEB
:1001C000991FFC01EE58FF4FA591B491FC01E45832
:1001D000FF4FC591D491623071F49FB7F8943C9170
:1001E000822F809583238C93E8812E2B28839FBFB9
:1001F000DF91CF9108958FB7F894EC912E2B2C932B
:100200008FBFF6CF3FB7F89480910501909106011A
:10021000A0910701B091080126B5A89B05C02F3F0A
:1002200019F00196A11DB11D3FBFBA2FA92F982F1C
:100230008827BC01CD01620F711D811D911D42E017
:10024000660F771F881F991F4A95D1F708958F92DF
:100250009F92AF92BF92CF92DF92EF92FF920E9455
:1002600002014B015C0188EEC82E83E0D82EE12C00
:10027000F12C0E940201681979098A099B09683EDC
:10028000734081059105A8F321E0C21AD108E10865
:10029000F10888EE880E83E0981EA11CB11CC114E1
:1002A000D104E104F10429F7FF90EF90DF90CF90A3
:1002B000BF90AF909F908F900895CF93C62F442307
:1002C00041F060E00E94A30061E08C2FCF910C947C
:1002D000A30061E00E94A30060E0F7CFCF93C62F98
:1002E00060E00E94A30060E08C2FCF910C94A300EB
:1002F000BF92CF92DF92EF92FF920F931F93CF9313
:10030000DF937C01162FC72ED42EB52EE90161E0B4
:100310000E94D10061E0812F0E94D10061E08D2D0B
:100320000E94D100402F6D2D7B2D812F9C2D0E948E
:100330005D0161E08E2D0E94D100209769F460E09C
:100340008E2DDF91CF911F910F91FF90EF90DF9055
:10035000CF90BF900C94A300CF3FD10511F461E082
:10036000EFCFF701EC54FF4FE491E43061F140F43A
:10037000E230B1F0E33011F1C038D10584F7DFCFBE
:10038000E83059F1E93089F1E530B1F7809180002A
:10039000806280938000D0938B00C0938A0004C059
:1003A00084B5806884BDC7BDDF91CF911F910F9147
:1003B000FF90EF90DF90CF90BF90089584B580625A
:1003C00084BDC8BDF1CF809180008068809380009B
:1003D000D0938900C0938800E7CF8091B0008068F7
:1003E0008093B000C093B300DFCF8091B0008062F3
:1003F0008093B000C093B400D7CF1F920F920FB676
:100400000F9211242F933F938F939F93AF93BF939A
:100410008091010190910201A0910301B09104012A
:100420003091000123E0230F2D3768F126E8230FD8
:100430000296A11DB11D20930001809301019093AC
:100440000201A0930301B0930401809105019091F2
:100450000601A0910701B09108010196A11DB11DEF
:100460008093050190930601A0930701B0930801C2
:10047000BF91AF919F918F913F912F910F900FBEA0
:100480000F901F9018950196A11DB11DD4CF78949F
:1004900084B5836084BD85B5836085BD80916E0021
:1004A000816080936E0082E0809381008091810062
:1004B00081608093810080918000816080938000C2
:1004C0008091B10084608093B1008091B000816020
:1004D0008093B00087E880937A001092C10001E019
:1004E0002FEF30E04AE050E069E070E086E090E015
:1004F0000E94780100E02FEF30E042E050E06CE035
:1005000070E08BE090E00E94780168E070E087E0A6
:1005100090E00E946E016AE070E089E090E00E9445
:100520006E016AE070E08CE090E00E946E0161E094
:100530008DE00E94D10062E084E00E94D100C8EB0F
:10054000D0E001EA10E09AE8E92E90E0F92E20E0F0
:10055000C22E20E0D22EFE018491F801A490F70172
:10056000B490BB2009F448C081110E947A00EB2DA1
:10057000F0E0EE0FFF1FE859FF4FA591B4918C9169
:10058000A822D1F161E08DE00E94A30040E062E08A
:1005900070E08CE090E00E945D010E94270162E023
:1005A00070E08CE090E00E946E010E94270140E024
:1005B00062E070E08CE090E00E945D010E94270103
:1005C00062E070E08CE090E00E946E0141E06AE041
:1005D00070E089E090E00E945D010E9427016AE0DE
:1005E00070E089E090E00E946E01C114D10409F42A
:1005F000B2CF0E940000AFCF60E08DE00E94A30068
:1006000068E070E087E090E00E946E016AE070E0D0
:1006100089E090E00E946E0162E070E08CE090E082
:06062000E2CFF894FFCFC9
:00000001FF
