:100000000C9462000C948A000C948A000C948A0070
:100010000C948A000C948A000C948A000C948A0038
:100020000C948A000C948A000C948A000C948A0028
:100030000C948A000C948A000C948A000C948A0018
:100040000C9423040C948A000C9493040C946D0477
:100050000C948A000C948A000C948A000C948A00F8
:100060000C94C5040C948A000000000024002700B2
:100070002A0000000000250028002B0004040404CE
:100080000404040402020202020203030303030342
:10009000020203010204081020408001020408103B
:1000A00020010204081020408040000000090003E5
:1000B000020000040508000000000000000000002D
:1000C0000000F00511241FBECFEFD8E0DEBFCDBF8A
:1000D00011E0A0E0B1E0E8E1F0E102C005900D928E
:1000E000AA32B107D9F722E0AAE2B1E001C01D921D
:1000F000AD37B207E1F710E0C2E6D0E004C02197C7
:10010000FE010E940408C136D107C9F70E942906E2
:100110000C940A080C940000282F9091D30181E0E0
:10012000913208F042C08091AF018111FCCF8091E3
:10013000D20132E03093AF012093AE012FEF209334
:10014000AD0122EB31E03093AC012093AB01109272
:10015000AA019093A9011092A8019091A801880F7B
:10016000892B8093A8018091A701813029F51092F5
:10017000A7018091A8018093BB008091BC0083FD02
:10018000F8CF85EC8093BC008091AF018230E1F321
:100190008091AD018F3F91F08091AD01803281F06F
:1001A0008091AD01803371F084E01092B101109222
:1001B000D3011092B001089585EEE4CF80E0F5CF31
:1001C00082E0F3CF83E0F1CF90E0FC01E655FF4FF2
:1001D0002491FC01ED56FF4F3491FC01E458FF4F90
:1001E000E491EE23C9F0222339F0243001F1A8F480
:1001F000223069F1233079F1F0E0EE0FFF1FEE5865
:10020000FF4FA591B4918FB7F894EC91611126C07E
:1002100030953E233C938FBF0895283071F02930EC
:1002200091F0253049F7809180008F7D03C0809147
:1002300080008F7780938000DFCF8091B0008F7730
:100240008093B000D9CF8091B0008F7DF9CF84B575
:100250008F7784BDD1CF84B58F7DFBCF3E2BDACF96
:10026000CF93DF9390E0FC01ED56FF4F249184582B
:100270009F4FFC0184918823D1F090E0880F991F53
:10028000FC01E859FF4FA591B491FC01EE58FF4FD6
:10029000C591D491623071F49FB7F8943C91822F4C
:1002A000809583238C93E8812E2B28839FBFDF9139
:1002B000CF9108958FB7F894EC912E2B2C938FBF8C
:1002C000F6CF3FB7F8948091A3019091A401A0913B
:1002D000A501B091A60126B5A89B05C02F3F19F036
:1002E0000196A11DB11D3FBFBA2FA92F982F8827B6
:1002F000BC01CD01620F711D811D911D42E0660F91
:10030000771F881F991F4A95D1F70895089508957A
:10031000AF92BF92CF92DF92EF92FF920F931F9313
:10032000CF93DF936C017B018B01040F151FEB0151
:100330005E01AE18BF08C017D10759F06991D60108
:10034000ED91FC910190F081E02DC6010995892B7A
:1003500079F7C501DF91CF911F910F91FF90EF9039
:10036000DF90CF90BF90AF900895FC01538D448DE6
:10037000252F30E0842F90E0821B930B541710F050
:10038000CF96089501970895FC01918D828D98175D
:1003900061F0A28DAE0FBF2FB11D5D968C91928D35
:1003A0009F5F9F73928F90E008958FEF9FEF089566
:1003B000FC01918D828D981731F0828DE80FF11D2F
:1003C000858D90E008958FEF9FEF0895FC01918D4A
:1003D000228D892F90E0805C9F4F821B91098F7343
:1003E0009927089584ED91E00E94E60121E0892B90
:1003F00009F420E0822F089580E090E0892B29F015
:100400000E94F20181110C9400000895FC01A48D5A
:10041000A80FB92FB11DA35ABF4F2C91848D90E026
:1004200001968F739927848FA689B7892C93A08909
:10043000B1898C91837080648C93938D848D981393
:1004400006C00288F389E02D80818F7D8083089526
:10045000EF92FF920F931F93CF93DF93EC0181E014
:10046000888F9B8D8C8D98131AC0E889F9898081BB
:1004700085FF15C09FB7F894EE89FF896083E889EE
:10048000F98980818370806480839FBF81E090E0E0
:10049000DF91CF911F910F91FF90EF900895F62E6D
:1004A0000B8D10E00F5F1F4F0F731127E02E8C8D07
:1004B0008E110CC00FB607FCFACFE889F98980814C
:1004C00085FFF5CFCE010E940602F1CFEB8DEC0F38
:1004D000FD2FF11DE35AFF4FF0829FB7F8940B8F69
:1004E000EA89FB8980818062CFCFCF93DF93EC01D3
:1004F000888D8823B9F0AA89BB89E889F9898C910C
:1005000085FD03C0808186FD0DC00FB607FCF7CFC7
:100510008C9185FFF2CF808185FFEDCFCE010E94C7
:100520000602E9CFDF91CF91089585ED8093BC005D
:100530008091BC0084FDFCCF1092AF010895209102
:100540005001260F3327331F21323105ECF420915F
:10055000AF01FC0190E080E0243069F082E0089572
:10056000A09150012191AC01405D5E4FA40FB52FC9
:10057000B11D2C930196861798F380915001680F56
:100580006093500180E0089581E008950895E0911E
:10059000780180917701E81730F4F0E0E758FE4FDA
:1005A000808190E008958FEF9FEF089590917801FA
:1005B000809177012FEF3FEF981748F4E92FF0E093
:1005C000E758FE4F208130E09F5F90937801C9018A
:1005D00008958091770190917801891B990B089576
:1005E000CF92DF92EF92FF920F931F93CF93DF93FF
:1005F0007C01CB018A012091B001222389F0EB011B
:100600006B01C40ED51ECC15DD0569F06991D701CB
:10061000ED91FC910190F081E02DC7010995F3CF98
:10062000642F0E949F02C801DF91CF911F910F910B
:10063000FF90EF90DF90CF900895CF93DF931F92BC
:10064000CDB7DEB769832091B0012223F9F0209164
:10065000D301203258F021E030E0FC0133832283C3
:1006600090E080E00F90DF91CF9108958091B101EB
:10067000E82FF0E0EE54FE4F998190838F5F8093D6
:10068000B1018093D30181E090E0ECCF61E0CE0135
:1006900001960E949F02F7CF90E080E00895DF92DC
:1006A000EF92FF920F931F93CF93DF937C01D62E8F
:1006B000142FE90161E00E94300161E08D2D0E945C
:1006C000300161E0812F0E9430010023C9F060E019
:1006D0008D2D0E94E40061E0812F0E94E40061E022
:1006E0008E2D0E943001209789F460E08E2DDF91DD
:1006F000CF911F910F91FF90EF90DF900C94E40049
:1007000061E08D2D0E94E40060E0E6CFCF3FD1058F
:1007100011F461E0EBCFF701E655FF4FE491E430CF
:1007200051F140F4E230B1F0E33001F1C038D105CD
:1007300084F7DBCFE83049F1E93079F1E530B1F702
:1007400080918000806280938000D0938B00C09362
:100750008A0004C084B5806884BDC7BDDF91CF9195
:100760001F910F91FF90EF90DF90089584B5806204
:1007700084BDC8BDF3CF80918000806880938000E5
:10078000D0938900C0938800E9CF8091B000806841
:100790008093B000C093B300E1CF8091B00080623D
:1007A0008093B000C093B400D9CF8F929F92AF9244
:1007B000BF920F931F93CF93DF93CDB7DEB7A1976F
:1007C0000FB6F894DEBF0FBECDBF19A2423008F4B9
:1007D0004AE08E010F5D1F4F842E912CB12CA12C6D
:1007E000A50194010E94E207E62FB901CA01EA308F
:1007F00044F5E05DD801EE938D01232B242B252BAE
:1008000079F790E080E0109769F0FD0101900020F9
:10081000E9F73197AF014A1B5B0BBD0184ED91E015
:100820000E948801A1960FB6F894DEBF0FBECDBF1F
:10083000DF91CF911F910F91BF90AF909F908F90BC
:100840000895E95CD7CF1F920F920FB60F92112433
:100850002F933F938F939F93AF93BF9380919F016B
:100860009091A001A091A101B091A20130919E01AF
:1008700023E0230F2D3768F126E8230F0296A11DF0
:10088000B11D20939E0180939F019093A001A0939E
:10089000A101B093A2018091A3019091A401A09124
:1008A000A501B091A6010196A11DB11D8093A301E0
:1008B0009093A401A093A501B093A601BF91AF911D
:1008C0009F918F913F912F910F900FBE0F901F908E
:1008D00018950196A11DB11DD4CF1F920F920FB68E
:1008E0000F9211242F933F934F935F936F937F93B6
:1008F0008F939F93AF93BF93EF93FF9384ED91E01A
:100900000E940602FF91EF91BF91AF919F918F914D
:100910007F916F915F914F913F912F910F900FBEFB
:100920000F901F9018951F920F920FB60F921124DF
:100930002F938F939F93EF93FF93E091E401F091B6
:10094000E5018081E091EA01F091EB0182FD1BC09D
:1009500090818091ED018F5F8F732091EE0182175E
:1009600041F0E091ED01F0E0EC52FE4F958F809365
:10097000ED01FF91EF919F918F912F910F900FBEFD
:100980000F901F9018958081F4CF1F920F920FB691
:100990000F9211242F933F934F935F936F937F9305
:1009A0008F939F93AF93BF93EF93FF938091B90081
:1009B000887F803609F44AC0F0F5883209F4A7C070
:1009C00018F5803109F49BC0B8F4882309F405C1F7
:1009D000883009F494C0FF91EF91BF91AF919F913E
:1009E0008F917F916F915F914F913F912F910F90D8
:1009F0000FBE0F901F901895883109F488C080327F
:100A000051F78093AD0114C0803409F4A5C040F4BF
:100A10008033B9F38833F9F68093AD0185ECBCC01F
:100A2000803509F489C0883509F49EC0883499F668
:100A30000E949502D0CF883909F494C038F58837E0
:100A400029F050F4883611F0803729F683E080933E
:100A5000AF011092720157C0883809F483C0803901
:100A600019F0803809F0B7CF80917201803208F018
:100A700079C0E091720181E08E0F809372018091C4
:100A8000BB00F0E0EE5AFE4F80833DC0803B39F062
:100A9000E0F4803A09F485C0883A09F09CCF84E0FC
:100AA0008093AF011092510110925001E0917501B5
:100AB000F091760109958091500181110FC081E07C
:100AC000809350011092300109C0803C09F4A6CFF8
:100AD000883C09F4A3CF883B09F07DCFE091510118
:100AE00081E08E0F80935101F0E0E05DFE4F808148
:100AF0008093BB00909151018091500131C0809151
:100B0000A8018093BB0085EC8093BC0064CF9091DA
:100B1000AA018091A9019817B8F58091AB01909135
:100B2000AC01E091AA0121E02E0F2093AA01E80F69
:100B3000F92FF11D8081E5CF2091AB013091AC01FF
:100B4000E091AA0181E08E0F8093AA018091BB0001
:100B5000E20FF32FF11D80839091AA018091A901EA
:100B6000981788F285E8D0CF2091AB013091AC0185
:100B7000E091AA0181E08E0F8093AA018091BB00D1
:100B8000E20FF32FF11D80838091AE01811150CFD0
:100B900081E08093A70184EA8093BC001092AF01AA
:100BA0001ACF85EC8093BC001092AF018091720146
:100BB000803230F4E0917201F0E0EE5AFE4F108284
:100BC0006091720170E0E0917301F091740182E52F
:100BD00091E0099510927201FECE1092AD0128CFDE
:100BE000E4EDF1E01382128288EE93E0A0E0B0E041
:100BF00084839583A683B78327E031E03183208304
:100C000025EC30E03587248724EC30E037872687D1
:100C100020EC30E0318B208B21EC30E0338B228BC9
:100C200022EC30E0358B248B26EC30E0378B268BA2
:100C3000118E128E138E148EE1E7F2E0138212826F
:100C400084839583A683B78389E191E09183808330
:100C50000895789484B5836084BD85B5836085BD2F
:100C600080916E00816080936E00C2E0C09381002D
:100C700080918100816080938100809180008160FB
:100C8000809380008091B10084608093B100809156
:100C9000B00081608093B00087E880937A00109262
:100CA000C10001E02FEF30E04AE050E069E070E081
:100CB00086E090E00E944F0300E02FEF30E043E039
:100CC00050E06CE070E08BE090E00E944F0360E049
:100CD00087E00E94E40060E088E00E94E40060E0B9
:100CE00089E00E94E40060E08AE00E94E40060E0A5
:100CF0008CE00E94E40060E08AE00E94E40061E091
:100D00008DE00E94300162E084E00E943001109288
:100D10007801109277011092B1011092D3011092D4
:100D2000AF01D1E0D093AE011092A70161E082E162
:100D30000E94E40061E083E10E94E4008091B90038
:100D40008E7F8093B9008091B9008D7F8093B90028
:100D500088E48093B80085E48093BC0086E891E045
:100D6000909376018093750187E891E090937401E8
:100D700080937301D093B00188E68093D2011092E2
:100D8000B1011092D30160E081E792E00E941D035F
:100D900069E581E792E00E941D0361E081E792E04E
:100DA0000E941D0361E081E792E00E941D0362E062
:100DB00081E792E00E941D0360E081E792E00E94DB
:100DC0001D0381E00E948C00E091E401F091E501B7
:100DD000C083E091E001F091E1011082E091E20135
:100DE000F091E3018FEC80831092EC01E091E80137
:100DF000F091E90186E08083E091E601F091E7015E
:100E0000808188698083E091E601F091E70180812B
:100E10008F7D808333E0232E31E0332EC1E009E75C
:100E200011E040E0E42E40E0F42E59E9C52E51E0F7
:100E3000D52EDAE090E0A92E91E0B92E29E9822E94
:100E400021E0922EC093B00128E62093D2011092A7
:100E5000B1011092D301F50161915F0181E792E048
:100E60000E941D0381E00E948C008091AF018111DE
:100E7000FCCFC093AF01C093AE01FFEFF093AD0183
:100E80001093AC010093AB011092AA011092A9013A
:100E9000C093A8018091A801806D8093A8018091E2
:100EA000A701813009F088C01092A7018091A801A4
:100EB0008093BB008091BC0083FDF8CF25EC20938C
:100EC000BC008091AF018130E1F38091AA018111D2
:100ED00077C08091AA01109278018093770181E711
:100EE00092E00E94D602982F92959F708F709D9FDE
:100EF000800D1124F40181934F012A143B0409F061
:100F0000A1CFD0929D01C0929C016091990170E0A7
:100F100090E080E04AE00E94D503E0919C01F091CE
:100F20009D01618170E090E080E04AE00E94D5037D
:100F3000E0919C01F0919D01628170E090E080E081
:100F40004AE00E94D50342E050E067E271E084EDA0
:100F500091E00E9488010E9461012B013C0188EE12
:100F6000882E83E0982EA12CB12C0E946101641977
:100F7000750986099709683E734081059105A8F3B4
:100F8000F1E08F1A9108A108B10828EE420E23E083
:100F9000521E611C711C81149104A104B10429F733
:100FA000E114F10409F446CF0E94F201882309F408
:100FB00040CF0E9400003DCF85EE8093BC0081CFE2
:100FC00081E089CFA1E21A2EAA1BBB1BFD010DC037
:100FD000AA1FBB1FEE1FFF1FA217B307E407F507E9
:100FE00020F0A21BB30BE40BF50B661F771F881FC5
:100FF000991F1A9469F760957095809590959B015B
:10100000AC01BD01CF010895EE0FFF1F0590F491D3
:08101000E02D0994F894FFCFD4
:101018000001020000000028028801B5017502E6FF
:1010280001C401D801000000001D03F0024C03C6F2
:0A10380002E902D602C7020D0A0009
:00000001FF
