:100000000C9467000C94FB040C94D4040C948F00A3
:100010000C948F000C948F000C948F000C948F0024
:100020000C948F000C948F000C948F000C948F0014
:100030000C948F000C948F000C948F000C948F0004
:100040000C948A040C948F000C9448050C9422059F
:100050000C948F000C948F000C948F000C948F00E4
:100060000C947A050C948F000000000023002600F9
:10007000290000000000240027002A0000000000E2
:10008000250028002B0004040404040404040202D4
:100090000202020203030303030302020301020438
:1000A00008102040800102040810200102040810FA
:1000B0002040804000000009000302000004050801
:1000C000000000000000000000000000A506112450
:1000D0001FBECFEFD8E0DEBFCDBF11E0A0E0B1E0A2
:1000E000E2EDF0E102C005900D92AC33B107D9F713
:1000F00022E0ACE3B1E001C01D92AA38B207E1F7FB
:1001000010E0C7E6D0E004C02197FE010E9461081C
:10011000C636D107C9F70E94DE060C9467080C9416
:1001200000009091E00181E0913208F043C080919D
:10013000BC018111FCCF8091DF0122E02093BC0142
:1001400021E02093BB012FEF2093BA012FEB31E088
:100150003093B9012093B8011092B7019093B60182
:100160001092B5019091B501880F892B8093B5014C
:100170008091B401813029F51092B4018091B501CC
:100180008093BB008091BC0083FDF8CF85EC809309
:10019000BC008091BC018230E1F38091BA018F3FB5
:1001A00091F08091BA01803281F08091BA01803360
:1001B00071F084E01092BE011092E0011092BD0136
:1001C000089585EEE4CF80E0F5CF82E0F3CF83E0C1
:1001D000F1CF843081F028F48230E9F08330F9F0F7
:1001E0000895883071F0893091F08530B9F48091AC
:1001F00080008F7D03C0809180008F778093800086
:1002000008958091B0008F778093B0000895809119
:10021000B0008F7DF9CF84B58F7784BD089584B504
:100220008F7DFBCF1F93CF93DF93282F30E0F90111
:10023000EC54FF4F8491F901E356FF4FD491F9013B
:10024000EA57FF4FC491CC23A9F0162F81110E94C9
:10025000E900EC2FF0E0EE0FFF1FE458FF4FA591EF
:10026000B4918FB7F894EC91111108C0D095DE23AA
:10027000DC938FBFDF91CF911F910895DE2BF8CFD4
:10028000CF93DF9390E0FC01E356FF4F24918A5710
:100290009F4FFC0184918823D1F090E0880F991F33
:1002A000FC01EE58FF4FA591B491FC01E458FF4FBB
:1002B000C591D491623071F49FB7F8943C91822F2C
:1002C000809583238C93E8812E2B28839FBFDF9119
:1002D000CF9108958FB7F894EC912E2B2C938FBF6C
:1002E000F6CF3FB7F8948091B0019091B101A09101
:1002F000B201B091B30126B5A89B05C02F3F19F0FC
:100300000196A11DB11D3FBFBA2FA92F982F882795
:10031000BC01CD01620F711D811D911D42E0660F70
:10032000771F881F991F4A95D1F70895089508955A
:100330000895AF92BF92CF92DF92EF92FF920F9308
:100340001F93CF93DF936C017B018B01040F151F6B
:10035000EB015E01AE18BF08C017D10759F06991D3
:10036000D601ED91FC910190F081E02DC601099537
:10037000892B79F7C501DF91CF911F910F91FF90E4
:10038000EF90DF90CF90BF90AF900895FC01538D18
:10039000448D252F30E0842F90E0821B930B54175F
:1003A00010F0CF96089501970895FC01918D828DEC
:1003B000981761F0A28DAE0FBF2FB11D5D968C9185
:1003C000928D9F5F9F73928F90E008958FEF9FEFC4
:1003D0000895FC01918D828D981731F0828DE80F80
:1003E000F11D858D90E008958FEF9FEF0895FC013A
:1003F000918D228D892F90E0805C9F4F821B910907
:100400008F739927089581EE91E00E94F70121E012
:10041000892B09F420E0822F089580E090E0892B59
:1004200029F00E94030281110C9400000895FC0140
:10043000A48DA80FB92FB11DA35ABF4F2C91848D45
:1004400090E001968F739927848FA689B7892C93A2
:10045000A089B1898C91837080648C93938D848DF5
:10046000981306C00288F389E02D80818F7D8083F8
:100470000895EF92FF920F931F93CF93DF93EC01B8
:1004800081E0888F9B8D8C8D98131AC0E889F9893B
:10049000808185FF15C09FB7F894EE89FF8960833E
:1004A000E889F98980818370806480839FBF81E0BF
:1004B00090E0DF91CF911F910F91FF90EF90089501
:1004C000F62E0B8D10E00F5F1F4F0F731127E02EDC
:1004D0008C8D8E110CC00FB607FCFACFE889F98914
:1004E000808185FFF5CFCE010E941702F1CFEB8D01
:1004F000EC0FFD2FF11DE35AFF4FF0829FB7F894E8
:100500000B8FEA89FB8980818062CFCFCF93DF9305
:10051000EC01888D8823B9F0AA89BB89E889F9891B
:100520008C9185FD03C0808186FD0DC00FB607FC50
:10053000F7CF8C9185FFF2CF808185FFEDCFCE0183
:100540000E941702E9CFDF91CF91089585ED809346
:10055000BC008091BC0084FDFCCF1092BC010895CA
:1005600020918201260F3327331F21323105ECF40D
:100570002091BC01FC0190E080E0243069F082E031
:100580000895A09182012191AC014E595E4FA40FB4
:10059000B52FB11D2C930196861798F38091820197
:1005A000680F6093820180E0089581E008950895C6
:1005B000E091AA018091A901E81730F4F0E0EE5B28
:1005C000FE4F808190E008958FEF9FEF0895909106
:1005D000AA018091A9012FEF3FEF981748F4E92F66
:1005E000F0E0EE5BFE4F208130E09F5F9093AA0128
:1005F000C90108958091A9019091AA01891B990BC5
:100600000895CF92DF92EF92FF920F931F93CF93B3
:10061000DF937C01CB018A012091BD01222389F067
:10062000EB016B01C40ED51ECC15DD0569F0699197
:10063000D701ED91FC910190F081E02DC701099562
:10064000F3CF642F0E94B002C801DF91CF911F91B8
:100650000F91FF90EF90DF90CF900895CF93DF93AD
:100660001F92CDB7DEB769832091BD012223F9F037
:100670002091E001203258F021E030E0FC0133838A
:10068000228390E080E00F90DF91CF9108958091D8
:10069000BE01E82FF0E0E154FE4F998190838F5F17
:1006A0008093BE018093E00181E090E0ECCF61E0B7
:1006B000CE0101960E94B002F7CF90E080E008954D
:1006C000CF93C62F91E09093BD0198E69093DF0100
:1006D0001092BE011092E001682F8EE792E00E9416
:1006E0002E036C2F8EE792E00E942E03CF910C9484
:1006F000910081E08093BD0188E68093DF01109234
:10070000BE011092E00160E08EE792E00E942E03AD
:1007100060E08EE792E00E942E0360E08EE792E0B8
:100720000E942E0360E08EE792E00E942E030C945C
:100730009100DF92EF92FF920F931F93CF93DF937D
:100740007C01D62E142FE90161E00E94400161E096
:100750008D2D0E94400161E0812F0E944001002305
:10076000C9F060E08D2D0E94120161E0812F0E948E
:10077000120161E08E2D0E944001209789F460E013
:100780008E2DDF91CF911F910F91FF90EF90DF9011
:100790000C94120161E08D2D0E94120160E0E6CF01
:1007A000CF3FD10511F461E0EBCFF701EC54FF4FDF
:1007B000E491E43051F140F4E230B1F0E33001F182
:1007C000C038D10584F7DBCFE83049F1E93079F161
:1007D000E530B1F780918000806280938000D093F3
:1007E0008B00C0938A0004C084B5806884BDC7BDF7
:1007F000DF91CF911F910F91FF90EF90DF900895BF
:1008000084B5806284BDC8BDF3CF809180008068CC
:1008100080938000D0938900C0938800E9CF8091B5
:10082000B00080688093B000C093B300E1CF8091A6
:10083000B00080628093B000C093B400D9CFFC01B7
:1008400001900020E9F73197AF01481B590BBC011B
:1008500081EE91E00C94990188E291E00E941F04DE
:1008600083E391E00C941F0491E09093BD0198E61E
:100870009093DF011092BE011092E001682F8EE785
:1008800092E00E942E030E9491008091BC01811190
:10089000FCCF81E08093BC018093BB019FEF9093DC
:1008A000BA0122E431E03093B9012093B8011092EB
:1008B000B7011092B6018093B5018091B501806DAA
:1008C0008093B5018091B401813001F51092B4019B
:1008D0008091B5018093BB008091BC0083FDF8CF6F
:1008E00085EC8093BC008091BC018130E1F3809164
:1008F000B70181110DC08091B7011092AA018093B8
:10090000A9018EE792E00E94E702089585EEE9CF03
:1009100081E0F3CF1F920F920FB60F9211242F9305
:100920003F938F939F93AF93BF938091AC0190912E
:10093000AD01A091AE01B091AF013091AB0123E0C8
:10094000230F2D3768F126E8230F0296A11DB11D54
:100950002093AB018093AC019093AD01A093AE01C5
:10096000B093AF018091B0019091B101A091B2011B
:10097000B091B3010196A11DB11D8093B001909378
:10098000B101A093B201B093B301BF91AF919F9118
:100990008F913F912F910F900FBE0F901F90189540
:1009A0000196A11DB11DD4CF1F920F920FB60F92C9
:1009B00011242F933F934F935F936F937F938F9364
:1009C0009F93AF93BF93EF93FF93E0910201F09158
:1009D00003010995FF91EF91BF91AF919F918F9185
:1009E0007F916F915F914F913F912F910F900FBE2B
:1009F0000F901F9018951F920F920FB60F9211240F
:100A00002F933F934F935F936F937F938F939F9316
:100A1000AF93BF93EF93FF93E0910001F091010139
:100A20000995FF91EF91BF91AF919F918F917F9128
:100A30006F915F914F913F912F910F900FBE0F904B
:100A40001F9018951F920F920FB60F9211242F939B
:100A50003F934F935F936F937F938F939F93AF9346
:100A6000BF93EF93FF9381EE91E00E941702FF91F5
:100A7000EF91BF91AF919F918F917F916F915F9116
:100A80004F913F912F910F900FBE0F901F9018958F
:100A90001F920F920FB60F9211242F938F939F9353
:100AA000EF93FF93E091F101F091F2018081E091E9
:100AB000F701F091F80182FD1BC090818091FA014D
:100AC0008F5F8F732091FB01821741F0E091FA0153
:100AD000F0E0EF51FE4F958F8093FA01FF91EF9177
:100AE0009F918F912F910F900FBE0F901F9018958F
:100AF0008081F4CF1F920F920FB60F9211242F9383
:100B00003F934F935F936F937F938F939F93AF9395
:100B1000BF93EF93FF938091B900887F803609F4EB
:100B20004AC0F0F5883209F4A7C018F5803109F4FD
:100B30009BC0B8F4882309F405C1883009F494C037
:100B4000FF91EF91BF91AF919F918F917F916F91A5
:100B50005F914F913F912F910F900FBE0F901F907B
:100B60001895883109F488C0803251F78093BA0112
:100B700014C0803409F4A5C040F48033B9F388333D
:100B8000F9F68093BA0185ECBCC0803509F489C0C0
:100B9000883509F49EC0883499F60E94A602D0CF09
:100BA000883909F494C038F5883729F050F488362C
:100BB00011F0803729F683E08093BC011092A401E4
:100BC00057C0883809F483C0803919F0803809F09B
:100BD000B7CF8091A401803208F079C0E091A401E0
:100BE00081E08E0F8093A4018091BB00F0E0EC5770
:100BF000FE4F80833DC0803B39F0E0F4803A09F439
:100C000085C0883A09F09CCF84E08093BC011092A3
:100C1000830110928201E091A701F091A80109954A
:100C20008091820181110FC081E080938201109236
:100C3000620109C0803C09F4A6CF883C09F4A3CF27
:100C4000883B09F07DCFE091830181E08E0F809396
:100C50008301F0E0EE59FE4F80818093BB009091BC
:100C600083018091820131C08091B5018093BB00E6
:100C700085EC8093BC0064CF9091B7018091B60160
:100C80009817B8F58091B8019091B901E091B7013A
:100C900021E02E0F2093B701E80FF92FF11D80817D
:100CA000E5CF2091B8013091B901E091B70181E021
:100CB0008E0F8093B7018091BB00E20FF32FF11DDF
:100CC00080839091B7018091B601981788F285E8EA
:100CD000D0CF2091B8013091B901E091B70181E006
:100CE0008E0F8093B7018091BB00E20FF32FF11DAF
:100CF00080838091BB01811150CF81E08093B4014A
:100D000084EA8093BC001092BC011ACF85EC8093DA
:100D1000BC001092BC018091A401803230F4E091BB
:100D2000A401F0E0EC57FE4F10826091A40170E046
:100D3000E091A501F091A60184E891E00995109257
:100D4000A401FECE1092BA0128CFE1EEF1E01382A9
:100D5000128288EE93E0A0E0B0E084839583A683BE
:100D6000B78328E031E03183208325EC30E03587FC
:100D7000248724EC30E03787268720EC30E0318B65
:100D8000208B21EC30E0338B228B22EC30E0358B52
:100D9000248B26EC30E0378B268B118E128E138E2F
:100DA000148EEEE7F2E01382128284839583A68389
:100DB000B7838AE191E0918380830895CF93DF9395
:100DC000CDB7DEB7A1970FB6F894DEBF0FBECDBF8B
:100DD000789484B5836084BD85B5836085BD80913A
:100DE0006E00816080936E0092E09093810080910C
:100DF0008100816080938100809180008160809378
:100E000080008091B10084608093B1008091B00037
:100E100081608093B00087E880937A001092C100CF
:100E2000E091F101F091F2019083E091ED01F091F8
:100E3000EE011082E091EF01F091F0018FEC8083E0
:100E40001092F901E091F501F091F60186E08083BE
:100E5000E091F301F091F401808188698083E09151
:100E6000F301F091F40180818F7D80831092AA01BB
:100E70001092A9011092BE011092E0011092BC01E3
:100E800081E08093BB011092B40161E082E10E9495
:100E9000120161E083E10E9412018091B9008E7F0E
:100EA0008093B9008091B9008D7F8093B90088E468
:100EB0008093B80085E48093BC0086E991E090932C
:100EC000A8018093A70187E991E09093A601809300
:100ED000A50100E02EE130E048E050E067E070E07E
:100EE00085E090E00E94990301E02FEF30E04AE0B6
:100EF00050E069E070E086E090E00E94990300E035
:100F00002FEF30E043E050E06CE070E08BE090E0E9
:100F10000E94990360E087E00E94120160E088E08F
:100F20000E94120160E089E00E94120160E08AE004
:100F30000E94120160E08CE00E94120160E08AE0F1
:100F40000E94120161E08DE00E94400162E084E0B5
:100F50000E94400162E082E00E9440018CE294E045
:100F60009093010180930001809169008C7F8260E1
:100F700080936900E89A0E94790326EB222E20E0F4
:100F8000322E0FE910E038E8E32E30E0F32E40E097
:100F9000C42E40E0D42E0E9479038EE00E943404D7
:100FA000682F6E7F8EE00E9460038FE00E94340401
:100FB000682F6E7F8FE00E94600368E68EE792E004
:100FC0000E942E0367E08EE792E00E942E0365E008
:100FD0008EE792E00E942E0360E08EE792E00E948E
:100FE0002E0360E08EE792E00E942E0360E88EE719
:100FF00092E00E942E030E9491008EE00E94340431
:10100000682F65608EE00E9460030E9471012B01D1
:101010003C0198E8892E93E1992EA12CB12C0E94D5
:1010200071016419750986099709683E7340810545
:101030009105A8F321E0821A9108A108B10888EE71
:10104000480E83E0581E611C711C81149104A10498
:10105000B10429F786E391E00E941F0483E391E045
:101060000E941F04F1018491F801B490F701A4904B
:10107000AA2079F081110E94E900EA2DF0E0EE0F3C
:10108000FF1FE859FF4FA591B4918C91B82281E0E0
:1010900009F480E019A2805D88A3CE0180960E94A9
:1010A0001F0483E391E00E941F04C114D10409F4DA
:1010B00072CF0E940302882309F46DCF0E940000C2
:1010C0006ACFEE0FFF1F0590F491E02D0994F8947C
:0210D000FFCF50
:1010D200980100000000000039029901C601860251
:1010E200F701D501E901000000002E0301035D03B1
:1010F200D702FA02E702D80257616B6520757021A8
:0C1102002121000D0A00446F6E65000002
:00000001FF
