:100000000C9467000C941B050C94F4040C948F0062
:100010000C948F000C948F000C948F000C948F0024
:100020000C948F000C948F000C948F000C948F0014
:100030000C948F000C948F000C948F000C948F0004
:100040000C94AA040C948F000C9468050C9442053F
:100050000C948F000C948F000C948F000C948F00E4
:100060000C949A050C948F000000000023002600D9
:10007000290000000000240027002A0000000000E2
:10008000250028002B0004040404040404040202D4
:100090000202020203030303030302020301020438
:1000A00008102040800102040810200102040810FA
:1000B0002040804000000009000302000004050801
:1000C000000000000000000000000000C506112430
:1000D0001FBECFEFD8E0DEBFCDBF11E0A0E0B1E0A2
:1000E000ECE9F1E102C005900D92A233B107D9F716
:1000F00022E0A2E3B1E001C01D92A138B207E1F70E
:1001000010E0C7E6D0E004C02197FE010E94C608B7
:10011000C636D107C9F70E94FE060C94CC080C9491
:1001200000009091D70181E0913208F043C08091A6
:10013000B3018111FCCF8091D60122E02093B3015D
:1001400021E02093B2012FEF2093B10126EB31E0A3
:100150003093B0012093AF011092AE019093AD01A6
:100160001092AC019091AC01880F892B8093AC0167
:100170008091AB01813029F51092AB018091AC01E7
:100180008093BB008091BC0083FDF8CF85EC809309
:10019000BC008091B3018230E1F38091B1018F3FC7
:1001A00091F08091B101803281F08091B101803372
:1001B00071F084E01092B5011092D7011092B40151
:1001C000089585EEE4CF80E0F5CF82E0F3CF83E0C1
:1001D000F1CF843081F028F48230E9F08330F9F0F7
:1001E0000895883071F0893091F08530B9F48091AC
:1001F00080008F7D03C0809180008F778093800086
:1002000008958091B0008F778093B0000895809119
:10021000B0008F7DF9CF84B58F7784BD089584B504
:100220008F7DFBCF1F93CF93DF93282F30E0F90111
:10023000EC54FF4F8491F901E356FF4FD491F9013B
:10024000EA57FF4FC491CC23A9F0162F81110E94C9
:10025000E900EC2FF0E0EE0FFF1FE458FF4FA591EF
:10026000B4918FB7F894EC91111108C0D095DE23AA
:10027000DC938FBFDF91CF911F910895DE2BF8CFD4
:10028000CF93DF9390E0FC01E356FF4F24918A5710
:100290009F4FFC0184918823D1F090E0880F991F33
:1002A000FC01EE58FF4FA591B491FC01E458FF4FBB
:1002B000C591D491623071F49FB7F8943C91822F2C
:1002C000809583238C93E8812E2B28839FBFDF9119
:1002D000CF9108958FB7F894EC912E2B2C938FBF6C
:1002E000F6CF3FB7F8948091A7019091A801A09113
:1002F000A901B091AA0126B5A89B05C02F3F19F00E
:100300000196A11DB11D3FBFBA2FA92F982F882795
:10031000BC01CD01620F711D811D911D42E0660F70
:10032000771F881F991F4A95D1F7089581E0809320
:10033000A1010895089508950895AF92BF92CF92B4
:10034000DF92EF92FF920F931F93CF93DF936C0195
:100350007B018B01040F151FEB015E01AE18BF0876
:10036000C017D10759F06991D601ED91FC91019028
:10037000F081E02DC6010995892B79F7C501DF9140
:10038000CF911F910F91FF90EF90DF90CF90BF9092
:10039000AF900895FC01538D448D252F30E0842FBC
:1003A00090E0821B930B541710F0CF96089501979D
:1003B0000895FC01918D828D981761F0A28DAE0F8A
:1003C000BF2FB11D5D968C91928D9F5F9F73928F11
:1003D00090E008958FEF9FEF0895FC01918D828D3D
:1003E000981731F0828DE80FF11D858D90E008950A
:1003F0008FEF9FEF0895FC01918D228D892F90E062
:10040000805C9F4F821B91098F739927089588ED17
:1004100091E00E94FB0121E0892B09F420E0822F6A
:10042000089580E090E0892B29F00E940702811155
:100430000C9400000895FC01A48DA80FB92FB11DE4
:10044000A35ABF4F2C91848D90E001968F7399270A
:10045000848FA689B7892C93A089B1898C918370E8
:1004600080648C93938D848D981306C00288F389E1
:10047000E02D80818F7D80830895EF92FF920F930E
:100480001F93CF93DF93EC0181E0888F9B8D8C8D40
:1004900098131AC0E889F989808185FF15C09FB734
:1004A000F894EE89FF896083E889F98980818370F7
:1004B000806480839FBF81E090E0DF91CF911F91A6
:1004C0000F91FF90EF900895F62E0B8D10E00F5FC7
:1004D0001F4F0F731127E02E8C8D8E110CC00FB69D
:1004E00007FCFACFE889F989808185FFF5CFCE0135
:1004F0000E941B02F1CFEB8DEC0FFD2FF11DE35A93
:10050000FF4FF0829FB7F8940B8FEA89FB898081B7
:100510008062CFCFCF93DF93EC01888D8823B9F031
:10052000AA89BB89E889F9898C9185FD03C08081FE
:1005300086FD0DC00FB607FCF7CF8C9185FFF2CF7B
:10054000808185FFEDCFCE010E941B02E9CFDF91B4
:10055000CF91089585ED8093BC008091BC0084FD0F
:10056000FCCF1092B301089520917801260F332714
:10057000331F21323105ECF42091B301FC0190E0EE
:1005800080E0243069F082E00895A0917801219103
:10059000AC01485A5E4FA40FB52FB11D2C930196A4
:1005A000861798F380917801680F6093780180E056
:1005B000089581E008950895E091A00180919F0140
:1005C000E81730F4F0E0E85CFE4F808190E0089599
:1005D0008FEF9FEF08959091A00180919F012FEFE1
:1005E0003FEF981748F4E92FF0E0E85CFE4F2081D8
:1005F00030E09F5F9093A001C901089580919F0111
:100600009091A001891B990B0895CF92DF92EF92F0
:10061000FF920F931F93CF93DF937C01CB018A014D
:100620002091B401222389F0EB016B01C40ED51E89
:10063000CC15DD0569F06991D701ED91FC91019030
:10064000F081E02DC7010995F3CF642F0E94B40219
:10065000C801DF91CF911F910F91FF90EF90DF9034
:10066000CF900895CF93DF931F92CDB7DEB7698304
:100670002091B4012223F9F02091D701203258F0C3
:1006800021E030E0FC013383228390E080E00F9092
:10069000DF91CF9108958091B501E82FF0E0EA5401
:1006A000FE4F998190838F5F8093B5018093D7012E
:1006B00081E090E0ECCF61E0CE0101960E94B402AF
:1006C000F7CF90E080E00895CF93C62F91E090930C
:1006D000B40198E69093D6011092B5011092D7011B
:1006E000682F85E792E00E9432036C2F85E792E045
:1006F0000E943203CF910C949100DF92EF92FF920F
:100700000F931F93CF93DF937C01D62E142FE90113
:1007100061E00E94400161E08D2D0E94400161E096
:10072000812F0E9440010023C9F060E08D2D0E94BE
:10073000120161E0812F0E94120161E08E2D0E9462
:100740004001209789F460E08E2DDF91CF911F91B9
:100750000F91FF90EF90DF900C94120161E08D2DCE
:100760000E94120160E0E6CFCF3FD10511F461E0B5
:10077000EBCFF701EC54FF4FE491E43051F140F43A
:10078000E230B1F0E33001F1C038D10584F7DBCFBE
:10079000E83049F1E93079F1E530B1F78091800036
:1007A000806280938000D0938B00C0938A0004C045
:1007B00084B5806884BDC7BDDF91CF911F910F9133
:1007C000FF90EF90DF90089584B5806284BDC8BD2E
:1007D000F3CF80918000806880938000D09389005F
:1007E000C0938800E9CF8091B00080688093B0000A
:1007F000C093B300E1CF8091B00080628093B000DD
:10080000C093B400D9CFFC0101900020E9F73197E3
:10081000AF01481B590BBC0188ED91E00C949D0180
:100820008F929F92AF92BF920F931F93CF93DF93BC
:10083000CDB7DEB7A1970FB6F894DEBF0FBECDBF20
:1008400019A2423008F44AE08E010F5D1F4F842E3A
:10085000912CB12CA12CA50194010E94A408E62F93
:10086000B901CA01EA30F4F4E05DD801EE938D01DC
:10087000232B242B252B79F790E080E0109719F09B
:10088000CD010E940304A1960FB6F894DEBF0FBEFF
:10089000CDBFDF91CF911F910F91BF90AF909F90EF
:1008A0008F900895E95CE1CF91E09093B40198E6D0
:1008B0009093D6011092B5011092D701682F85E769
:1008C00092E00E9432030E9491008091B301811155
:1008D000FCCF81E08093B3018093B2019FEF9093AE
:1008E000B10128E331E03093B0012093AF011092C1
:1008F000AE011092AD018093AC018091AC01806D8E
:100900008093AC018091AB01813001F51092AB0175
:100910008091AC018093BB008091BC0083FDF8CF37
:1009200085EC8093BC008091B3018130E1F380912C
:10093000AE0181110DC08091AE011092A001809393
:100940009F0185E792E00E94EB02089585EEE9CFD2
:1009500081E0F3CF1F920F920FB60F9211242F93C5
:100960003F938F939F93AF93BF938091A3019091F7
:10097000A401A091A501B091A6013091A20123E0AC
:10098000230F2D3768F126E8230F0296A11DB11D14
:100990002093A2018093A3019093A401A093A501A9
:1009A000B093A6018091A7019091A801A091A901FF
:1009B000B091AA010196A11DB11D8093A70190934A
:1009C000A801A093A901B093AA01BF91AF919F91F3
:1009D0008F913F912F910F900FBE0F901F90189500
:1009E0000196A11DB11DD4CF1F920F920FB60F9289
:1009F00011242F933F934F935F936F937F938F9324
:100A00009F93AF93BF93EF93FF93E0910201F09117
:100A100003010995FF91EF91BF91AF919F918F9144
:100A20007F916F915F914F913F912F910F900FBEEA
:100A30000F901F9018951F920F920FB60F921124CE
:100A40002F933F934F935F936F937F938F939F93D6
:100A5000AF93BF93EF93FF93E0910001F0910101F9
:100A60000995FF91EF91BF91AF919F918F917F91E8
:100A70006F915F914F913F912F910F900FBE0F900B
:100A80001F9018951F920F920FB60F9211242F935B
:100A90003F934F935F936F937F938F939F93AF9306
:100AA000BF93EF93FF9388ED91E00E941B02FF91AB
:100AB000EF91BF91AF919F918F917F916F915F91D6
:100AC0004F913F912F910F900FBE0F901F9018954F
:100AD0001F920F920FB60F9211242F938F939F9313
:100AE000EF93FF93E091E801F091E9018081E091BB
:100AF000EE01F091EF0182FD1BC090818091F10128
:100B00008F5F8F732091F201821741F0E091F10124
:100B1000F0E0E852FE4F958F8093F101FF91EF9145
:100B20009F918F912F910F900FBE0F901F9018954E
:100B30008081F4CF1F920F920FB60F9211242F9342
:100B40003F934F935F936F937F938F939F93AF9355
:100B5000BF93EF93FF938091B900887F803609F4AB
:100B60004AC0F0F5883209F4A7C018F5803109F4BD
:100B70009BC0B8F4882309F405C1883009F494C0F7
:100B8000FF91EF91BF91AF919F918F917F916F9165
:100B90005F914F913F912F910F900FBE0F901F903B
:100BA0001895883109F488C0803251F78093B101DB
:100BB00014C0803409F4A5C040F48033B9F38833FD
:100BC000F9F68093B10185ECBCC0803509F489C089
:100BD000883509F49EC0883499F60E94AA02D0CFC5
:100BE000883909F494C038F5883729F050F48836EC
:100BF00011F0803729F683E08093B30110929A01B7
:100C000057C0883809F483C0803919F0803809F05A
:100C1000B7CF80919A01803208F079C0E0919A01B3
:100C200081E08E0F80939A018091BB00F0E0E6583E
:100C3000FE4F80833DC0803B39F0E0F4803A09F4F8
:100C400085C0883A09F09CCF84E08093B30110926C
:100C5000790110927801E0919D01F0919E01099532
:100C60008091780181110FC081E08093780110920A
:100C7000580109C0803C09F4A6CF883C09F4A3CFF1
:100C8000883B09F07DCFE091790181E08E0F809360
:100C90007901F0E0E85AFE4F80818093BB0090918B
:100CA00079018091780131C08091AC018093BB00C3
:100CB00085EC8093BC0064CF9091AE018091AD0132
:100CC0009817B8F58091AF019091B001E091AE0115
:100CD00021E02E0F2093AE01E80FF92FF11D808146
:100CE000E5CF2091AF013091B001E091AE0181E0FC
:100CF0008E0F8093AE018091BB00E20FF32FF11DA8
:100D000080839091AE018091AD01981788F285E8BB
:100D1000D0CF2091AF013091B001E091AE0181E0E0
:100D20008E0F8093AE018091BB00E20FF32FF11D77
:100D300080838091B201811150CF81E08093AB011B
:100D400084EA8093BC001092B3011ACF85EC8093A3
:100D5000BC001092B30180919A01803230F4E0918E
:100D60009A01F0E0E658FE4F108260919A0170E01F
:100D7000E0919B01F0919C018AE791E00995109226
:100D80009A01FECE1092B10128CFE8EDF1E0138276
:100D9000128288EE93E0A0E0B0E084839583A6837E
:100DA000B78328E031E03183208325EC30E03587BC
:100DB000248724EC30E03787268720EC30E0318B25
:100DC000208B21EC30E0338B228B22EC30E0358B12
:100DD000248B26EC30E0378B268B118E128E138EEF
:100DE000148EE5E7F2E01382128284839583A68352
:100DF000B7838AE191E0918380830895789484B5E4
:100E0000836084BD85B5836085BD80916E008160FF
:100E100080936E0092E090938100809181008160C8
:100E20008093810080918000816080938000809118
:100E3000B10084608093B1008091B00081608093A4
:100E4000B00087E880937A001092C100E091E80139
:100E5000F091E9019083E091E401F091E5011082C5
:100E6000E091E601F091E7018FEC80831092F001B0
:100E7000E091EC01F091ED0186E08083E091EA01E0
:100E8000F091EB01808188698083E091EA01F09123
:100E9000EB0180818F7D80831092A00110929F01D1
:100EA0001092B5011092D7011092B301C1E0C09326
:100EB000B2011092AB0161E082E10E94120161E097
:100EC00083E10E9412018091B9008E7F8093B90066
:100ED0008091B9008D7F8093B90088E48093B80039
:100EE00085E48093BC008AE991E090939E01809311
:100EF0009D018BE991E090939C0180939B0100E020
:100F00002EE130E048E050E067E070E085E090E0FE
:100F10000E947D0301E02FEF30E04AE050E069E0FD
:100F200070E086E090E00E947D0300E02FEF30E06B
:100F300043E050E06CE070E08BE090E00E947D03C5
:100F400060E087E00E94120160E088E00E941201E8
:100F500060E089E00E94120160E08AE00E941201D4
:100F600060E08CE00E94120160E08AE00E941201C1
:100F700061E08DE00E94400162E084E00E94400157
:100F800062E082E00E94400186E991E090930101D5
:100F900080930001809169008C7F8260809369005A
:100FA000E89AC093B401D8E6D093D6011092B50167
:100FB0001092D70160E085E792E00E94320360E082
:100FC00085E792E00E94320360E085E792E00E94AC
:100FD000320360E085E792E00E9432030E949100B4
:100FE0008EE00E945404682F6E7F8EE00E9464039E
:100FF0008FE00E945404682F6E7F8FE00E9464038C
:10100000C093B401D093D6011092B5011092D701CC
:1010100067E085E792E00E94320365E085E792E0B1
:101020000E94320360E085E792E00E94320360E0B4
:1010300085E792E00E94320360E885E792E00E9433
:1010400032030E9491008EE00E945404682F656074
:101050008EE00E94640326EB822E20E0922ECFE9E0
:10106000D0E008E810E030E0A32E30E0B32E0E947C
:1010700071012B013C0198EEC92E93E0D92EE12C91
:10108000F12C0E9471016419750986099709683E5F
:10109000734081059105A8F321E0C21AD108E10847
:1010A000F10888EE480E83E0581E611C711CC114C3
:1010B000D104E104F10429F788E291E00E940304DD
:1010C0008EE291E00E940304F4018491FE01E49019
:1010D000F801F49070E060E0FF2099F081110E9427
:1010E000E900EF2DF0E0EE0FFF1FE859FF4FA5914B
:1010F000B4918C91E82291E080E009F490E0692FAE
:10110000782F072E000C880B990B4AE00E941004E0
:101110008EE291E00E9403046091A10170E090E0F2
:1011200080E04AE00E9410048EE291E00E940304F5
:10113000A114B10409F49BCF0E940702882309F48B
:1011400096CF0E94000093CFA1E21A2EAA1BBB1BD0
:10115000FD010DC0AA1FBB1FEE1FFF1FA217B30783
:10116000E407F50720F0A21BB30BE40BF50B661F99
:10117000771F881F991F1A9469F76095709580955D
:1011800090959B01AC01BD01CF010895EE0FFF1FAB
:0C1190000590F491E02D0994F894FFCF35
:10119C009C010000000000003D029D01CA018A0272
:1011AC00FB01D901ED0100000000320305036103CE
:1011BC00DB02FE02EB02DC0274696D6572000D0A43
:0211CC00000021
:00000001FF
