:100000000C9466000C9478000C9478000C947800A2
:100010000C9478000C9478000C9478000C94780080
:100020000C9478000C9478000C9478000C94780070
:100030000C9478000C9478000C9478000C94780060
:100040000C9402010C9478000C9478000C947800C5
:100050000C9478000C9478000C9478000C94780040
:100060000C9478000C947800000000002300260017
:10007000290000000000240027002A0000000000E2
:10008000250028002B0004040404040404040202D4
:100090000202020203030303030302020301020438
:1000A00008102040800102040810200102040810FA
:1000B0002040804000000009000302000004050801
:1000C00000000000000000000000000011241FBE1E
:1000D000CFEFD8E0DEBFCDBF21E0A0E0B1E001C0AE
:1000E0001D92A930B207E1F70E944C010C94C501A2
:1000F0000C940000843081F028F48230E9F08330E1
:10010000F9F00895883071F0893091F08530B9F4B4
:10011000809180008F7D03C0809180008F778093D5
:10012000800008958091B0008F778093B00008958B
:100130008091B0008F7DF9CF84B58F7784BD08950D
:1001400084B58F7DFBCF1F93CF93DF93282F30E0B3
:10015000F901EC54FF4F8491F901E356FF4FD4911C
:10016000F901EA57FF4FC491CC23A9F0162F811152
:100170000E947A00EC2FF0E0EE0FFF1FE458FF4FD3
:10018000A591B4918FB7F894EC91111108C0D09556
:10019000DE23DC938FBFDF91CF911F910895DE2B7B
:1001A000F8CFCF93DF9390E0FC01E356FF4F24910B
:1001B0008A579F4FFC0184918823D1F090E0880FEB
:1001C000991FFC01EE58FF4FA591B491FC01E45832
:1001D000FF4FC591D491623071F49FB7F8943C9170
:1001E000822F809583238C93E8812E2B28839FBFB9
:1001F000DF91CF9108958FB7F894EC912E2B2C932B
:100200008FBFF6CF1F920F920FB60F9211242F932C
:100210003F938F939F93AF93BF93809105019091EC
:100220000601A0910701B09108013091040123E07B
:10023000230F2D3768F126E8230F0296A11DB11D6B
:10024000209304018093050190930601A093070178
:10025000B09308018091000190910101A0910201E9
:10026000B09103010196A11DB11D809300019093EF
:100270000101A0930201B0930301BF91AF919F913F
:100280008F913F912F910F900FBE0F901F90189557
:100290000196A11DB11DD4CF789484B5836084BD2F
:1002A00085B5836085BD80916E00816080936E000E
:1002B00082E0809381008091810081608093810041
:1002C000809180008160809380008091B100846083
:1002D0008093B1008091B00081608093B00087E886
:1002E00080937A001092C10061E08BE00E94D100FF
:1002F00061E08CE00E94D10061E08DE00E94D100BD
:1003000060E08CE00E94A30061E08DE00E94A30009
:1003100061E08BE00E94D10061E08BE00E94A300CD
:1003200061E08DE00E94D10062E087E00E94D10090
:10033000CBEBD0E004EA10E09DE8E92E90E0F92E46
:1003400020E0C22E20E0D22EFE018491F801A4907C
:10035000F701B490BB2079F081110E947A00EB2D57
:10036000F0E0EE0FFF1FE859FF4FA591B4918C917B
:10037000A82261E009F460E08DE00E94A300C114AE
:0E038000D10411F30E940000DFCFF894FFCFEC
:00000001FF
