:100000000C9466000C9478000C9478000C947800A2
:100010000C9478000C9478000C9478000C94780080
:100020000C9478000C9478000C9478000C94780070
:100030000C9478000C9478000C9478000C94780060
:100040000C94CE000C9478000C9478000C947800FA
:100050000C9478000C9478000C9478000C94780040
:100060000C9478000C947800000000002400270015
:100070002A000000000023002600290000000000E4
:10008000250028002B0004040404040404040202D4
:100090000202020203030303030302020301020438
:1000A00008102040800102040810200102040810FA
:1000B0002040804000000009000302000004050801
:1000C00000000000000000000000000011241FBE1E
:1000D000CFEFD8E0DEBFCDBF21E0A0E0B1E001C0AE
:1000E0001D92A930B207E1F70E9418010C94A601F5
:1000F0000C940000843081F028F48230E9F08330E1
:10010000F9F00895883071F0893091F08530B9F4B4
:10011000809180008F7D03C0809180008F778093D5
:10012000800008958091B0008F778093B00008958B
:100130008091B0008F7DF9CF84B58F7784BD08950D
:1001400084B58F7DFBCF1F93CF93DF93E1ECF0E07D
:100150009491EAEAF0E0D491E3E9F0E0C491CC2391
:10016000B9F0182F992319F0892F0E947A00EC2FEB
:10017000F0E0EE0FFF1FE458FF4FA591B4918FB749
:10018000F894EC91111108C0D095DE23DC938FBF59
:10019000DF91CF911F910895DE2BF8CF1F920F9220
:1001A0000FB60F9211242F933F938F939F93AF938A
:1001B000BF938091050190910601A0910701B09134
:1001C00008013091040123E0230F2D3768F126E860
:1001D000230F0296A11DB11D2093040180930501F8
:1001E00090930601A0930701B0930801809100014C
:1001F00090910101A0910201B09103010196A11D0E
:10020000B11D8093000190930101A0930201B0936E
:100210000301BF91AF919F918F913F912F910F90CB
:100220000FBE0F901F9018950196A11DB11DD4CF40
:10023000789484B5836084BD85B5836085BD8091E5
:100240006E00816080936E0082E0809381008091D7
:100250008100816080938100809180008160809323
:1002600080008091B10084608093B1008091B000E3
:1002700081608093B00087E880937A001092C1007B
:10028000EAEAF0E02491E3E9F0E08491882399F030
:1002900090E0880F991FFC01E859FF4FA591B49198
:1002A000FC01E458FF4F859194918FB7F894EC913D
:1002B000E22BEC938FBFC4EAD0E0FE0124910DE85D
:1002C00010E0F80184918823C9F090E0880F991F0D
:1002D000FC01E859FF4FA591B491FC01E458FF4F90
:1002E000459154919FB7F8943C91822F8095832338
:1002F0008C93FA018081282B20839FBF9BEBE92EF2
:1003000090E0F92E20E0C22E20E0D22EF701849159
:10031000FE01A490F801B490BB2079F081110E94F5
:100320007A00EB2DF0E0EE0FFF1FEE58FF4FA59186
:10033000B4918C91A82281E009F480E00E94A3008E
:10034000C114D10419F30E940000E0CFF894FFCF4C
:00000001FF
